:100000000C94CF070C94EC070C94EC070C94BA2FCB
:100010000C94EC070C94EC070C94EC070C94EC0794
:100020000C94EC070C94EC070C94DF150C94001A5C
:100030000C94C8270C94EC070C94EC070C94EC0778
:100040000C94EC070C94EC070C94EC070C94EC0764
:100050000C94EC070C94B8160C94EC070C94EC0779
:100060000C94EC070C94EC070C94EC070C94EC0744
:100070000C94EC070C94EC070C94EC070C94EC0734
:100080000C94EC070C94EC070C94EC070C94EC0724
:100090000C94EC070C94EC070C94EC070C94EC0714
:1000A0000C94EC070C94EC070C94EC0714001A0069
:1000B00008001500170004001600070009000A00D8
:1000C0001D221B000600190005000000A800E0002A
:1000D0002A242C43130012000C0018001C003300CB
:1000E0000F000E000D000B003832370036001000F4
:1000F000110000006452390028424C411E001F00CC
:100100002000210022002B000000AA00A90000000E
:10011000E10000000000A800007C000000000000DA
:10012000E200000027002600250024002300340000
:100130004F00520051005000E5004E004B004D00B2
:100140004A000000000000002800010029003A00D9
:100150003B003C003D0000003E003F0040004100ED
:10016000E100420043004400450000000000E200BE
:10017000000000002D002E000000000000003100F3
:100180003500000030002F00E500000000000000F6
:10019000000000000000000001000000E00000007E
:1001A000000000000000E200D300D200D1000000F7
:1001B000E10000000000000000000000000000005E
:1001C000000000000000000000000000000000002F
:1001D000000000000000000000000000000000001F
:1001E000000000000000000000000000007C000093
:1001F000000000000000037C000000000000000080
:1002000000000000000000000000000000000000EE
:100210000000000000000000000000000000207846
:100220002778257823782178010028782678247883
:1002300022780000010000000000000000DA1281B6
:10024000FFD9F1DB20A4A62EAF00A0C0D30000A1EF
:10025000C8D30000AED580A83F408D142000643282
:1002600014783C1E1E140A05000101010101010160
:10027000010102020202020202020203030303035B
:10028000030303040404040404040505050505062A
:1002900006060606070707070708080808090909E8
:1002A000090A0A0A0B0B0B0C0C0C0D0D0D0E0E0E91
:1002B0000F0F0F1010111111121213131414151522
:1002C00016161717181819191A1A1B1B1C1D1D1E94
:1002D0001E1F2020212222232424252626272829E8
:1002E000292A2B2C2D2D2E2F303132323334353616
:1002F0003738393A3B3C3D3E3F4041424344454616
:100300004748494A4C4D4E4F5051535455565859F1
:100310005A5B5D5E5F616264656668696B6C6D6F98
:100320007072737577787A7B7D7E8082838587880B
:100330008A8C8E8F91939596989A9C9EA0A2A3A545
:10034000A7A9ABADAFB1B3B5B7BABCBEC0C2C4C646
:10035000C9CBCDCFD1D4D6D8DBDDDFE2E4E7E9EB02
:10036000EEF0F3F5F8FAFDFFFFAA7F5540222325B2
:100370002628292A2C2D2F3032333536383A3B3D6A
:100380003E4042434547494A4C4E505153555759B8
:100390005A5C5E6062646668696B6D6F71737577D5
:1003A000797B7D7F81838587898A8C8E90929496D4
:1003B000989A9C9E9FA1A3A5A7A8AAACAEAFB1B3E3
:1003C000B4B6B8B9BBBCBEBFC1C2C3C5C6C7C9CA33
:1003D000CBCCCDCED0D1D2D2D3D4D5D6D7D7D8D9F5
:1003E000D9DADADBDBDBDCDCDCDCDCDDDDDDDDDC53
:1003F000DCDCDCDCDBDBDBDADAD9D9D8D7D7D6D565
:10040000D4D3D2D2D1D0CECDCCCBCAC9C7C6C5C326
:10041000C2C1BFBEBCBBB9B8B6B4B3B1AFAEACAA73
:10042000A8A7A5A3A19F9E9C9A98969492908E8C23
:100430008A89878583817F7D7B79777573716F6DFD
:100440006B6968666462605E5C5A595755535150D7
:100450004E4C4A4947454342403E3D3B3A3836358B
:100460003332302F2D2C2A29282625232200AF00B5
:10047000AE556E6B6E20004D6F7573652020004188
:10048000646A757374200053796D626F6C73004EEB
:10049000756D626572730042617365202020006F84
:1004A0006666006F6E20000A000A436170733A208E
:1004B0000057504D3A00546869732069730A7E7E74
:1004C0007E7E7E7E7E7E7E0A44726163750A4C610A
:1004D000640A7E7E7E7E7E7E7E7E7E0A76312E3031
:1004E0000A7E7E7E7E7E7E7E7E7E0A00000000008A
:1004F00000000000000000000000000000000000FC
:1005000000000000000000000000000000000000EB
:1005100000000000000000000000000000000000DB
:10052000000000000000000000000080808080804B
:10053000808080808000000000000000000000003B
:1005400000000000000000000000000000000000AB
:10055000000000000000000000000000000000009B
:10056000000000000000000000000000000000008B
:10057000000000000000000000000000000000007B
:10058000000000000000000000000000000000006B
:10059000000004040C1878F0F0E0E0C080000000D7
:1005A0000000000000000000000000FFFF0101014A
:1005B0000101010103073EFCF0000000F0F0603093
:1005C00030300000E0E03030303030E0E00000005B
:1005D00080C0E07030303070E0C00000F0F0F0001B
:1005E0000000000000F0F00000000000000000002B
:1005F000000000000080C0E0E0E0E0C080000000FB
:1006000080E0F8F080C0E0F0000000000000000092
:100610000000000000000000033FFFFFFFFFFEFCA2
:10062000F8E0800000000000000000FFFF808080F4
:1006300080808080C0E07C3F0F000000FFFF000052
:1006400000000070F8CC8C848686C6FFFF80800096
:100650003F7FE0C0808080C0F07100001FFFFF80FE
:10066000808080C0F8FFFF00000000000000000054
:1006700000000002030303070F0F0F1F7F7F3E3EA2
:100680007FFFFFFFFFFFFFFFFEF8F8FCFCFEFE7E92
:100690007C78E0800000000000E0FFFFFFFFFFFF2C
:1006A000FFFFFFFC0000000000000001010101014C
:1006B0000101010101000000000000000101000033
:1006C0000000000000010101010100000101010022
:1006D0000000000101010101000000000000010113
:1006E0000101010100010100000000000000000004
:1006F00000000000000000000000808000000000FA
:1007000000000000000000000101000000000000E7
:1007100000000080C0E0F0F8FEFFFFFFFFFFFFFFDA
:10072000FFFFFF1F00000000000000FFFF000000AF
:100730000000000000000000C0C06060606060C099
:10074000C000000000C0C0E0606060C0C0FFFF00EB
:100750000000000000000000000000000000000099
:100760000000000000000000000000000000000089
:100770000000000000000000000001070F3E7CFCAC
:10078000F8F8F8F8F0F0F0F0F0F0F0F8F8F8FCFC19
:10079000FCFEFFFFFFFFFFFFFFFFFFFFFF7F3F1F8D
:1007A0000F03000000000000000000FFFF00000039
:1007B00000000000000000E0F19918080C0C8CFF0C
:1007C000FF0000007FFFC18000000080C3FFFF002A
:1007D0000000000000000000000000000000000019
:1007E0000000000000000000000000000000000009
:1007F00000000000000000000000000000000000F9
:1008000000010307070F0F0F1F1F1F1F1F1F1F1FB1
:100810001F1F1F1F1F0F0F0707030301000000000A
:1008200000000000000000000000000303030303B9
:100830000303030303030000010303030303010194
:100840000303030000010103030303010103030089
:100850000000000000000000000000000000000098
:100860000000000000000000000000000000000088
:100870000000000000000000000000000000000078
:100880000000000000000000000000000000000068
:100890000000000000000000000000000000000058
:1008A0000000000000000000000000000000000048
:1008B0000000000000000000000000000000000038
:1008C0000000000000000000000000000000000028
:1008D0000000000000000000000000000000000018
:1008E00000000000000000000000000005010902F7
:1008F000A10185020901A1000509190129081500B6
:10090000250195087501810205010930093115811C
:10091000257F95027508810609381581257F950187
:1009200075088106050C0A38021581257F95017529
:10093000088106C0C005010980A101850319012AAB
:10094000B700150126B700950175108100C0050C90
:100950000901A101850419012AA002150126A0029E
:10096000950175108100C005010906A101850605E4
:100970000719E029E7150025019508750181020591
:1009800007190029EF1500250195F0750181020571
:1009900008190129059505750191029501750391C5
:1009A00001C005010906A101050719E029E71500A5
:1009B00025019508750181029501750881010507DA
:1009C000190029FF150026FF00950675088100050E
:1009D0000819012905150025019505750191029554
:1009E0000175039101C009023B00020100A0FA0950
:1009F000040000010301010009211101000122444A
:100A0000000705810308000109040100010300003B
:100A10000009211101000122B60007058203200010
:100A2000011201000200000008EDFE1E1B01000182
:100A30000200011203440072006100630075004C63
:100A40000061006400000010034D0061006E00674B
:100A5000006F004900560000000403090407087FE6
:100A60000807003E5B4F5B3E003E6B4F6B3E001C39
:100A70003E7C3E1C00183C7E3C18001C577D571CD9
:100A8000001C5E7F5E1C0000183C180000FFE7C3DE
:100A9000E7FF00001824180000FFE7DBE7FF003045
:100AA000483A060E00262979292600407F050507C9
:100AB00000407F05253F005A3CE73C5A007F3E1C22
:100AC0001C0800081C1C3E7F0014227F2214005FBB
:100AD0005F005F5F0006097F017F00006689956AFD
:100AE0000060606060600094A2FFA2940008047E31
:100AF00004080010207E20100008082A1C080008A6
:100B00001C2A0808001E10101010000C1E0C1E0CD1
:100B10000030383E383000060E3E0E060000000061
:100B200000000000005F0000000007000700001444
:100B30007F147F1400242A7F2A1200231308646282
:100B400000364956205000000807030000001C2210
:100B50004100000041221C00002A1C7F1C2A0008C2
:100B6000083E0808000080703000000808080808E7
:100B7000000000606000002010080402003E51499F
:100B8000453E0000427F400000724949494600212D
:100B900041494D33001814127F100027454545394F
:100BA000003C4A49493100412111090700364949B1
:100BB000493600464949291E000000140000000083
:100BC00040340000000008142241001414141414CE
:100BD000000041221408000201590906003E415D4F
:100BE000594E007C1211127C007F49494936003E63
:100BF00041414122007F4141413E007F49494941F5
:100C0000007F09090901003E41415173007F080836
:100C1000087F0000417F4100002040413F01007FEC
:100C200008142241007F40404040007F021C027FA8
:100C3000007F0408107F003E4141413E007F0909CA
:100C40000906003E4151215E007F09192946002610
:100C5000494949320003017F0103003F4040403FC2
:100C6000001F2040201F003F4038403F0063140811
:100C70001463000304780403006159494D430000E4
:100C80007F41414100020408102000004141417FA2
:100C900000040201020400404040404000000307FD
:100CA0000800002054547840007F2844443800381D
:100CB0004444442800384444287F0038545454188D
:100CC0000000087E09020018A4A49C78007F080494
:100CD00004780000447D4000002040403D00007F3B
:100CE000102844000000417F4000007C0478047814
:100CF000007C0804047800384444443800FC18247C
:100D000024180018242418FC007C08040408004857
:100D1000545454240004043F4424003C4040207CAC
:100D2000001C2040201C003C4030403C0044281067
:100D30002844004C9090907C004464544C44000043
:100D4000083641000000007700000000413608002E
:100D5000000201020402003C2623263C00000000A1
:100D6000000000404040F0F8F8FF38FFF8F83FF886
:100D7000F8FF38FFF8F8F0404040000000000000A5
:100D800080C0C0C0800000C0C08000000080C0C023
:100D900000C0C0000080C0C00000000000C0C0C093
:100DA000C0C000C0C0000000000000000000000043
:100DB0000000000000000000000000000000000033
:100DC0000000000000000000000000000000000023
:100DD000000000000000000000000000C0F0F8FC6F
:100DE0003E1E06010000007F4141417F007F4141DE
:100DF000417F000080C0E07E5B4F5BFEC00000C012
:100E000000DCD7DEDEDED7DC00C000000000000022
:100E100000000000000000000000000000000000D2
:100E2000000000494949FFFFFFFFE0DFBFBF00BFEF
:100E3000BFDFE0FFFFFFFF49494900000000001F3E
:100E40003F6060E0BF1F007F7F071E381E077F7F67
:100E5000007F7F0E1F3B716000000000007F7F0C51
:100E60000C0C007E7E007F7E0303007F7E03037EEA
:100E70007E03037F7E000F3E703C063C703E0F00F9
:100E8000327B49493F7E007F7E0303001E3F696934
:100E90006F2600000000000000000000030F1F3F4D
:100EA0003C7870600000007F4141417F007F4141FC
:100EB000417F00307B7F7830202030787F3B0003FB
:100EC000000F7F0F0F0F7F0F0003000000000000D6
:100ED0000000000000000000000000000000000012
:100EE000000000010101070F0F7F0F7F0F0F7E0F22
:100EF0000F7F0F7F0F0F07010101000000000000AE
:100F000000000000010100000000000000000000DF
:100F100000000000000000000000000000000000D1
:100F200000000000000000000000000000000000C1
:100F300000000000000000000000000000000000B1
:100F400000000000000000000000000000000000A1
:100F50000000000000000000000000000000000091
:100F60000000000000000000000000000000000081
:100F70000000000000000000000000000000000071
:100F80000000000000000000000000000000000061
:100F9000000000000000000000000000000011241C
:100FA0001FBECFEFDAE0DEBFCDBF11E0A0E0B1E0C1
:100FB000E4E7F5E602C005900D92A83DB107D9F728
:100FC00027E0A8EDB1E001C01D92A23FB207E1F712
:100FD0000E94EF270C9464320C940000482F20915B
:100FE000E3039091AA0357E0291302C080E008951B
:100FF00030E0529FF001539FF00D1124E555FC4F56
:101000008181681306C08081481303C085818111E6
:10101000EECF2F5F3F4F2770E7CFE8EDF0E0808104
:101020008E7F80831092E2001092DA001092E1002D
:10103000A0EEB0E08C9181608C9380818F7780836B
:1010400019BCA7EDB0E08C918E7F8C9380818F7E50
:1010500080831092930308952091E4003091E5007D
:1010600095E6A9012091EC00822F817020FF06C037
:101070008091E80080FF06C080E008952091E8009C
:1010800022FD1AC08091A003882389F0853089F061
:101090008091EB0085FD0FC02091E4003091E500C8
:1010A00042175307F9F29150E1F684E0089582E087
:1010B000089583E0089581E008958091A20387FF59
:1010C00013C08091E80082FF06C08091E8008B7712
:1010D0008093E80004C08091A0038111F2CF0895AD
:1010E0008091A0038823D9F38091E80080FFF8CF96
:1010F0008091E8008E77ECCF982F9093E900242F11
:10110000762F50E0891731F07091EC002091ED00BE
:101110005091F00021FD07C09F5F973071F78093D9
:10112000E90081E008953091EB003E7F3093EB00C1
:101130003091ED003D7F3093ED003091EB00316058
:101140003093EB007093EC002093ED005093F0008F
:101150002091EE0027FDE0CF80E00895B0E0A0E010
:10116000E4EBF8E00C94F430C8EDD0E088818F7E99
:101170008883E7EDF0E080818160808384E082BF36
:1011800081E08093930388818E7F888302EE10E054
:10119000F80110821092DA0081EEC82ED12CF601EF
:1011A000108288818F77888388818068888388818E
:1011B0008F7D888319BC1092A0031092A103109216
:1011C0009F0310929E0390EEE92EF12CF70180818F
:1011D0008B7F808388818160888342E060E080E04B
:1011E0000E947C08F60180818E7F8083F8018081D7
:1011F00081608083808188608083F70180818E7F19
:101200008083888180618883CDB7DEB7E8E00C9465
:101210001031FC018091A8039091A90386179707CC
:10122000A0F06115710529F49091E8009E779093E4
:10123000E80090E06115710551F4911108C08091AA
:10124000E80082FF34C080E00895BC01F2CF8091B5
:10125000A0038823C1F18530C1F18091E80083FDAE
:1012600030C08091E80082FDEACF8091E80080FFE5
:10127000E1CF8091F3002091F200382F61157105C4
:1012800019F02830310558F091E02830310509F087
:1012900090E02091E8002E772093E800CBCF819159
:1012A0008093F100615071092F5F3F4FE7CF80912C
:1012B000A003882341F0853041F08091E80083FF4E
:1012C000BECF81E0089582E0089583E00895809183
:1012D000950308952FB7F89460918F037091900350
:1012E00080919103909192032FBF089590915A019C
:1012F0009923D1F090918C0397FF16C0E82FE695C3
:10130000E695E695EE31E0F4F0E0EE51FE4F282F41
:10131000277081E090E001C0880F2A95EAF7809558
:101320009281892382830895ECEDF1E091918913F4
:1013300003C0DF0111971C9291E0E23EF907B1F77B
:10134000089590915A019923C1F090918C0397FFD1
:1013500014C0E82FE695E695E695EE31F8F4F0E056
:10136000EE51FE4F877021E030E001C0220F8A95D8
:10137000EAF78281822B82830895ACEDB1E0EFEF32
:1013800090E02D91821751F0EF3F19F4211101C027
:10139000E92F9F5F9630A9F7EF3F09F408950E2ECD
:1013A000000CFF0BE652FE4FE6CFA3E0B0E0EBED02
:1013B000F9E00C94FA3020918A0330918B032817BE
:1013C0003907A1F090938B0380938A03E0918803FF
:1013D000F0918903309751F024E029839B838A831D
:1013E0000084F185E02DCE01019609952396E2E077
:1013F0000C941631A3E0B0E0E0E0FAE00C94FA308F
:10140000209186033091870328173907A1F0909324
:10141000870380938603E0918803F09189033097D6
:1014200051F023E029839B838A830084F185E02D9A
:10143000CE01019609952396E2E00C941631809135
:101440008403882359F0E0918803F0918903309751
:1014500029F00190F081E02D0995089580E008952C
:101460008091790380FD16C081FD16C082FD16C0F3
:10147000809178038823A1F0883280F428E0829F4D
:10148000C001112468E270E00E942D31862F672B85
:1014900039F0089582E0089584E0089588E0089581
:1014A00081E008958091790380FD14C081FD14C00E
:1014B00082FD16C080917703882381F08E3180F4FD
:1014C00020E5829FC00111246EE170E00E942D3161
:1014D000862F089584E1089588E2089588E00895AC
:1014E00080E50895282F35EB2303C001112497FFD1
:1014F00004C080589109892F089580589F4FFBCFD1
:10150000FC01680F791F8FEF91E32191822728E07A
:1015100030E087FF09C0880F892721503109C9F7BA
:10152000E617F70791F70895880FF7CF539A0895B4
:1015300090E06623A1F0885A9E4FFC0120812F3F46
:1015400089F0E22FE295EF70F0E080A190E02F703B
:1015500002C0959587952A95E2F7817008958A5A79
:101560009E4FEBCF80E0089590E06623E9F0885A23
:101570009E4FFC0180818F3FB1F0E82FE295EF7024
:10158000F0E041A18F7021E030E0B90102C0660FA8
:10159000771F8A95E2F7CB01962F9095942391A31C
:1015A00092A1892B82A308958A5A9E4FE2CF9091EF
:1015B0007103E92FF0E0409172039F012F5F3F4FCD
:1015C0002370332742171306A9F0ED58FC4F282F3C
:1015D0002F7780818078822B60FB87F980839F5FE3
:1015E00093709093710380916F038F5F80936F036B
:1015F00081E0089580E00895FA01811101C0FB01A6
:10160000099508950895EAEFF2E0118282818460DD
:101610008283089580911B0380FD0AC0EDEFF2E004
:10162000118210821282339683E0EB31F807C1F702
:101630006AE070E08DEF92E00E94A0110895909111
:101640001B0390FF0CC0EDEFF2E0818360834283C7
:10165000339693E0EB31F907C1F70E940A0B089526
:10166000EBE1F3E080818E7F80830E94030BEAEF41
:10167000F2E08281816082830E940A0B089580914A
:101680001B03982F9C7F29F48370846080931B0335
:1016900008958436E8F383708066F8CFAF92BF92E6
:1016A000DF92EF92FF920F931F93CF93DF93082F58
:1016B000162FE901E42FF0E0E859FD4F611110C049
:1016C000E4915E2F4E2F4983E8835A83DF91CF91B7
:1016D0001F910F91FF90EF90DF90BF90AF90089512
:1016E000E62EF12C4491D42EE42FF0E026E0829FE8
:1016F000C00111242FEF30E0B9010E94D630802FB5
:1017000090E0880F991F55E5569FD001579FB00D67
:1017100011248A1B9B0B982F990F890F5901AE1822
:10172000BF08AE9ED001AF9EB00DBE9EB00D11247D
:101730005B2F189F80011124012F11275901A01A36
:10174000B10AAE9E8001AF9E100DBE9E100D1124F9
:101750005901A81AB108AE9CC001AF9C900DBE9C67
:10176000900D1124892F9927281B390B2E9FC0011A
:101770002F9F900D3E9F900D1124E92F623071052F
:10178000A1F050F46115710509F49DCF6130710528
:1017900081F0EB2F512F97CF6430710569F080F005
:1017A0006630710509F48FCFF4CFE42F4B2F592FFA
:1017B0008ACFE42F412F87CFEB2F542F492F83CF90
:1017C0004B2F5D2DE12F7FCFA3E0B0E0EAEEFBE0F1
:1017D0000C94FA3090911B0390FF0AC09E012F5F7A
:1017E0003F4F0E944E0B4B8169818A810E941F0BE3
:1017F0002396E2E00C941631CF93DF93EC01EBE1FA
:10180000F3E0438162818C810E94E40B8C818F5FC5
:101810008C83DF91CF910895CF93DF93EC01EC811E
:10182000F0E0E359FC4F4491EBE1F3E06281818108
:101830000E94E40B8C818F5F8C83DF91CF910895A0
:10184000EF92FF921F93CF93DF93EC018DEFE82E81
:1018500082E0F82E10E08C81970140911E03609188
:101860001D03810F0E944E0B175E83E0E80EF11CF2
:101870001A3F89F70E940A0B9A818C8190FF08C059
:101880008F5F8C83DF91CF911F91FF90EF90089530
:101890008150F7CF80E0089581E08093F2020895AF
:1018A000F894E82FE295EF70F0E031A1282F2F7027
:1018B00081E090E001C0880F2A95EAF7982F909573
:1018C000932391A392A1892B82A3789408950F93D7
:1018D0001F9380918403882329F00E946A091F9135
:1018E0000F9108950E946A09009186021091870263
:1018F0002091880230918902600F711F821F931F0F
:10190000EECF90918C0392FF10C041E0282F2471FC
:10191000243009F040E031E0282F2871283009F008
:1019200030E0431711F02CE0822793FF10C041E014
:10193000282F2471243109F040E031E0282F28714C
:10194000283109F030E0431711F02CE08227309164
:101950008D0330FF10C051E0282F2171213009F094
:1019600050E041E0282F2871283009F040E054175A
:1019700011F029E0822731FF10C041E0282F2171AA
:10198000213109F040E031E0282F2871283109F099
:1019900030E0431711F029E0822794FD877E0895F7
:1019A00082389105B9F1B0F48133910509F47DC015
:1019B00048F48932910509F46DC08A32910509F421
:1019C0007BC008958533910509F45FC08933910583
:1019D00009F10895833E9105D9F138F4803E9105CF
:1019E00029F1823E910579F10895863E9105D9F15C
:1019F000873E910509F43EC0843E910541F5209152
:101A00008D0321FF24C080918C0384FD19C087EED3
:101A100090E0089520918C03237009F05AC0209122
:101A20008D0323FF14C089E290E0089520918C0378
:101A300020FD38C030918D0330FF09C024FF43C022
:101A400090E080E0089520918C0322FDF7CF089567
:101A500020918C0322FD3AC030918D0330FD39C0B6
:101A600024FFF5CFEDCF20918C0323FFF0CF24FD91
:101A7000E7CFCDCF20918C0323FD2EC030918D0375
:101A800031FFEECF84EE90E0089520918C0325FF86
:101A9000DECFC9CF20918C0325FD21C020918D037D
:101AA00023FFD5CF89E390E0D2CF20918C0326FF8E
:101AB000CECF8AE290E0089520918C0326FFC7CF15
:101AC00081E390E0089583EE90E0089582EE90E047
:101AD000089580EE90E0089586EE90E0089585E305
:101AE00090E00895972F7830B8F46530A8F48530E9
:101AF000B0F470E025E0929F600D711D1124FB0190
:101B000098E2899FE00DF11D1124EE0FFF1FE455AF
:101B1000FF4F85919491089580E090E0089581E0D1
:101B2000FCCF1F93CF93DF930E94D00CEC01C11523
:101B300080E5D807F0F5C11580E4D80708F09CC00F
:101B4000C03ED10520F5CD3CD10508F082C0C83A91
:101B5000D10578F4C53AD10508F073C0C130D1057C
:101B600019F1209709F1C430D105F0F4D0E0C0E0BC
:101B70001BC0C33CD105D0F7C85AD0E0CC0FDD1F45
:101B8000C25ADE4F0990D881C02DD4640DC0C11552
:101B900080E2D80708F0D1C0C11581E0D80708F06D
:101BA0005AC0C83ED10510F7CE01DF91CF911F91E9
:101BB0000895C03682E5D80718F5C03482E5D80705
:101BC00008F06BC0C03282E5D80708F05FC0C115CD
:101BD00082E5D80708F497C02C2F2695269580E239
:101BE000289F900111248C2F8370C1E0D0E002C0A7
:101BF000CC0FDD1F8A95E2F7C22BD32BDD68D4CF43
:101C0000C03A82E5D80760F4C03882E5D80708F406
:101C100059C0CF71D0E0DC2FCC27C46FD06AC4CFBD
:101C2000C03C82E5D80708F462C0C03E82E5D80710
:101C300008F09CCFDC2FCC27CC27DF71C06FD06A97
:101C4000B3CFC55AD0E0C55ADE4FC881D0E0D064CA
:101C5000ABCFD065A9CF8D2F0E94810C182FCE015C
:101C600099270E94D00CC12FD0E0DC2FCC27CC27A5
:101C7000DF71C82BD92B98CFCE0199270E94D00CA9
:101C8000CC27DF70C82BD92BD06A8ECFCF71D0E094
:101C9000DC2FCC27C16FD06A87CF2C2F26952695B5
:101CA000277080E2289F900111248C2F8370C1E05F
:101CB000D0E002C0CC0FDD1F8A95E2F7C22BD32BF8
:101CC000DC6872CF2C2F26952695277080E2289FFE
:101CD000900111248C2F8370C1E0D0E002C0CC0FA2
:101CE000DD1F8A95E2F7C22BD32BDA685DCF8C2FEC
:101CF0008F710E94810CC82FD0E0DC2FCC27CC271D
:101D0000DF71D06251CF8C2F8F710E94810C55E012
:101D1000D695C7955A95E1F7CF70D0E0DC2FCC2748
:101D2000282F30E084FF05C044E0220F331F4A957E
:101D3000E1F7C22BD32BD06937CF8D2F8F710E9443
:101D4000810C182FCE0199270E94D00CC12FD0E012
:101D5000DC2FCC27CC27DF71C82BD92BD2CF809595
:101D600090914502982390934502089580914502F1
:101D700090911C02892B90911B02992391F0892B41
:101D800090915A01992371F090918C0397FF0AC0AA
:101D90009EE124EE31E040E0915040F44111109278
:101DA0001B02089596E02CED31E0F5CFF901519139
:101DB0009F01552389F34F5FEFCF8091E30390910B
:101DC000AA03981301C008958F5F8770FACFCF924E
:101DD000DF92FF920F931F93CF93DF936C010091DB
:101DE000240380914602082BC7E0D0E010E0FC2ECF
:101DF000C8010C2E02C0959587950A94E2F780FDE4
:101E00000CC02197A0F7F12C8F2DDF91CF911F915E
:101E10000F91FF90DF90CF900895B6018C2F0E9414
:101E2000720D0E94910D019761F3EECFCF93DF9376
:101E3000EC010E94E70EBE010E94720D0E94910DFE
:101E4000DF91CF910895292F983078F5853068F586
:101E500090E035E0239F800D911D1124682F67705D
:101E600023E0969587952A95E1F7FC01EE0FFF1F79
:101E7000E80FF91FEC5FFD4F50E040E080E021915A
:101E800030E0062E02C0369527950A94E2F72170BD
:101E90003327042E01C0220F0A94EAF7822B4F5FEA
:101EA0005F4F4330510559F7089580E00895292F79
:101EB000983098F5853088F590E035E0239F800DC7
:101EC000911D1124282F277041E001C0440F2A954D
:101ED000EAF723E0969587952A95E1F7FC01EE0F46
:101EE000FF1FE80FF91FEC5FFD4F30E020E070E0CE
:101EF0005191DF011197CB01022E02C09695879573
:101F00000A94E2F7817081958527842385278C9335
:101F10002F5F3F4F2330310559F7089580932403F5
:101F2000089521E030E001C0220F8A95EAF720955C
:101F30008091240382230E948E0F089590911A02AB
:101F40008095892380931A02282F277069F48917B6
:101F500059F090918D0392FF07C0869586958695DE
:101F60000E94910F10921A02089521E030E001C002
:101F7000220F8A95EAF780912403822B0E948E0F0C
:101F80000895809346020895FC0124812223C1F024
:101F9000808191810E94160F92959F70963091F0EA
:101FA00058F4925F9F70923058F4803F19F030F4EB
:101FB000883E30F481E008959A5FF4CF843FD1F3F6
:101FC00080E00895883EB0F3813FD1F7F3CF982F9A
:101FD00092959F7011F0892F94E0282F26952695D1
:101FE00011F09E5F822F869509F09F5F892F0895DB
:101FF000A6E0B0E0EEEFFFE00C94F93049835A839D
:1020000049815A819923A1F0222391F0CA010E94AB
:10201000E70E182F682F89819A810E94570F6981D6
:102020007A81812F0E94720D2696E3E00C9415317F
:10203000CA010E94230F182FF2CFCF93DF93C091D4
:10204000F007D091F1078A30C1F42091E703CE0167
:102050008A5E9340622F70E00E94D630281B822F48
:1020600066E00E942131C82FC15018F4DF91CF9152
:10207000089580E20E941D10F7CF8D30E9F4CA5E0A
:10208000D3402091E703622F70E0CE010E94D6304A
:10209000281B822F9E01280F311D2115344018F076
:1020A00080E0D0E0C0E0C80FD11DC651DC4FD09316
:1020B000F107C093F007DACF96E0FE01AAEEB7E091
:1020C00001900D929A95E1F7803E08F458C086E0A1
:1020D000FE0111928A95E9F7C091F007D091F107BE
:1020E00046E050E0BE018AEE97E00E94F6319E0184
:1020F0002A5E3340892B41F1C90146E096958795C8
:102100004A95E1F741E050E0BA0102C0660F771F3F
:102110008A95E2F7CB016091E8037091E903862B81
:10212000972BB9016B5F7F4FE6E076956795EA954F
:10213000E1F702C0440F551F6A95E2F7842B952BF7
:102140009093E9038093E8032A5F3F4F4091E703B0
:10215000642F70E0C9010E94D630481B463010F44D
:10216000240F311D211574E0370710F030E020E016
:1021700026513C4F3093F1072093F00777CFF6E0DC
:102180008F9FB0011124635A754F46E050E0CE0195
:102190000E94E031A1CFCF93DF93EC01FE01849147
:1021A000811103C0DF91CF9108950E941D102196E7
:1021B000F5CF80915A01882359F180918C0387FFD4
:1021C00027C00E94B60E8093E30140E250E06DE12B
:1021D00072E082EE91E00E94F631892BC1F080E23C
:1021E000E2EEF1E0ADE1B2E001900D928A95E1F707
:1021F000E0918803F0918903309749F086E080935D
:10220000E2010480F581E02D82EE91E009950895C8
:102210000E94B60E8093DA0148E050E06DE372E070
:102220008AED91E00E94F631892B89F388E0EAED8E
:10223000F1E0ADE3B2E001900D928A95E1F7E09113
:102240008803F0918903309711F30280F381E02D28
:102250008AED91E0DBCF882321F00E94AF0E0E942F
:10226000D9100895882339F090914502982B9093C6
:1022700045020E94D91008950F931F93CF93DF93C7
:102280008B01EA019091A003943061F58093E900FD
:102290008FEF9091E800815095FD06C095ED9A95DD
:1022A000F1F700008111F5CF8091E80085FF1AC099
:1022B0000E942C08811111C08091E80085FD06C0A4
:1022C0008091E8008E778093E800F2CFF801819149
:1022D0008F018093F100219779F78091E8008E7744
:1022E0008093E800DF91CF911F910F91089543E013
:1022F00050E0BC0182E00E943C11089546E050E0AD
:10230000BC0182E00E943C11089540E250E0BC0113
:1023100082E00E943C110895CF93DF93EC0148E0E6
:1023200050E0BC0181E00E943C1188E0FE01A6E97A
:10233000B3E001900D928A95E1F7DF91CF91089576
:102340004BB1477F5BB15860EFB7F8949B01220F08
:10235000331F260F371F280F391F2817390741F45D
:10236000EFBF8FE594E00197F1F700C000000895FA
:10237000DC016D91CD0178E05BB9000000C067FF22
:102380004BB9660F000000C000C000C04BB900C0D0
:102390007A9591F7E2CFB0E0A0E0E1EDF1E10C94A5
:1023A000F2307C015B016A018091850201E010E05E
:1023B0008A3010F40AE010E0C1E0D0E0B501C701B6
:1023C000F6010995811104C021960C171D072CF404
:1023D000CDB7DEB7EAE00C940E31CC9F9001CD9FD3
:1023E000300D300D112490E080E045E34A95F1F77F
:1023F0000000019682179307C1F7E0CFAB0124E6F6
:1024000030E0BC0188E70E948A2E21E0892B09F088
:1024100020E0822F089580916B0390916E039111BB
:1024200003C091E089270895882369F062E070E095
:102430008FE694E00E94FE11811103C080916B032E
:10244000089510926B0380916B03EBCFCF93C091F3
:102450006B0380916E038823D1F00E946A09605D4E
:102460007A488F4F9F4F6093670370936803809300
:10247000690390936A03C11108C062E070E08DE6C1
:1024800094E00E94FE11811105C0C0916B038C2F56
:10249000CF91089581E080936B03F7CFB0E0A0E087
:1024A000E4E5F2E10C94F03049015A016B017C0142
:1024B0000E943F0B8401A4016A2D7B2D88E090E0EF
:1024C0000E94423294014A2D5B2DB601C70100E201
:1024D0000E94B631622F83E290E00E943032CDB785
:1024E000DEB7ECE00C940C31A3E0B0E0EAE7F2E1F7
:1024F0000C94EB30F82E562EE42E422E90911B03B6
:1025000090FF42C020911C03281308C080911D0336
:10251000861304C080911E03841729F08091FC0269
:1025200082608093FC02E92FE695E695AE2FB0E03D
:10253000A155BE4F8C918093FA029C7F943041F557
:102540009E012F5F3F4F4E2D652D8F2D0E944E0B0C
:102550004B8169818A810E941F0BF0921C0350926B
:102560001D03E0921E03442079F020911B0360912B
:102570001F03709120033F2D452D5E2D8091210377
:10258000909122030E944E122396E1E10C940731B0
:10259000823019F4E0901E03E0CF8630B1F189302B
:1025A000A1F18F30D1F6EF508E2F8170382EE69545
:1025B000F0E0E859FC4FE4910E2F10E08DEFC82EAB
:1025C00082E0D82E9BE1892E93E0992EB12CA12C8C
:1025D0002AE0622E712CC501B3010E94D6308F2DE6
:1025E000311011C0860F96014E2D652D0E944E0BA5
:1025F000A00EB11E83E0C80ED11C8C149D0459F7A7
:102600000E940A0BAACF861BEECFF22EA6CFEBE1DB
:10261000F3E0438128E0421B08F440E021E06281BE
:1026200081810E9474120895EBE1F3E0438128E078
:10263000420F08F44FEF21E0628181810E94741201
:102640000895EBE1F3E0628128E0621B08F460E0AA
:1026500021E0438181810E9474120895EBE1F3E04F
:10266000628128E0620F08F46FEF21E043818181ED
:102670000E9474120895EBE1F3E0818121E043812F
:10268000628188500E9474120895EBE1F3E0818129
:1026900021E043816281885F0E94741208958091D5
:1026A0001F03882319F0815080931F0320911B037F
:1026B00030911C0340911D0350911E0360911F0334
:1026C0007091200380912103909122030E944E1269
:1026D000089580911F03833018F48F5F80931F0348
:1026E00020911B0330911C0340911D0350911E0348
:1026F00060911F0370912003809121039091220328
:102700000E944E120895ABE0B0E0E9E8F3E10C94CA
:10271000FA3088E0EBE1F3E0DE01119601900D92D2
:102720008A95E1F78091FA029091FB02A091FC0258
:1027300089879A87AB872B854091810250918202CD
:1027400060918302709184023FB7F89480918F0367
:1027500090919003A0919103B09192033FBF841B8D
:10276000950BA60BB70B84369105A105B10510F4A6
:10277000222319F180913101909132018C599D4FA2
:102780004091300150E04C30510510F04BE050E0EA
:10279000BE016F5F7F4F0E94033286E090E00E948F
:1027A0006030882369F00E946A0960938102709307
:1027B000820280938302909384021092FC0281E053
:1027C0002B96E2E00C941631A4E0B0E0EAEEF3E1DF
:1027D0000C94F93040916002509161026091620264
:1027E000709163022FB7F89480918F0390919003BA
:1027F000A0919103B09192032FBF841B950BA60B60
:10280000B70B11E084369105A105B10570F10E9466
:10281000670C6E5F7F4F8F4F9F4F69837A838B83E7
:102820009C838091290190912A018C599D4F409160
:10283000280150E04530510510F044E050E0BE0161
:102840006F5F7F4F0E94033285E090E00E9460300E
:10285000182F882351F00E946A09609360027093D8
:1028600061028093620290936302812F2496E3E0D9
:102870000C9415314F925F927F928F929F92AF92FC
:10288000BF92CF92DF92EF92FF920F931F93CF935D
:10289000DF930F92CDB7DEB7C62E4A015901482EFD
:1028A000880F5508C2010E946030782E882309F4F1
:1028B00080C0C20133E0880F991F3A95E1F7FC010F
:1028C000E050FF4F438150E04115510511F041E0C8
:1028D00050E080509F4FFC01648175816C597D4FA1
:1028E000CE0101960E940332F40140815181628140
:1028F00073812FB7F89480918F0390919003A091EA
:102900009103B09192032FBF841B950BA60BB70BBD
:1029100084369105A105B10540F4B701C8010E94B4
:10292000800A9981891709F444C00C2C000CDD0839
:10293000C6010E946030782E811113C0712C872D42
:102940000F90DF91CF911F910F91FF90EF90DF904B
:10295000CF90BF90AF909F908F907F905F904F905F
:102960000895C60123E0880F991F2A95E1F7FC011D
:10297000E050FF4F438150E0E416F50608F4A7014C
:1029800080509F4FFC01648175816C597D4FC5015A
:102990000E940332B701C8010E94800A99818913FD
:1029A000CDCF0E946A09F40160837183828393838F
:1029B000C6CFA701B801C5010E940332C0CFA8E06D
:1029C000B0E0E5EEF4E10C94F63088E0E82EF12C6E
:1029D0000AE612E09E012F5F3F4F4CE552E063E0B4
:1029E00082E00E943A14082F882389F190916902AD
:1029F00080915B02981759F110E090916D028091DF
:102A00006C028917F1F0E92FF0E0E859FD4F86815B
:102A100087FB662760F99F5F937090936D0290919A
:102A20006B029F5F90936B028F770E94D70A182FDB
:102A30008111E3CF84E090E00E946030012F0823F1
:102A400002C01111F7CF8091690280935B02802F41
:102A50002896E6E00C941231A4E0B0E0E2E3F5E160
:102A60000C94F4306B0184E0E82EF12C05E612E0C2
:102A70009E012F5F3F4F47E552E061E080E00E94FA
:102A80003A14882361F049815A816B817C8140939B
:102A90005302509354026093550270935602409132
:102AA0005302509154026091550270915602F60102
:102AB00040835183628373832496E8E00C94103141
:102AC000A8E0B0E0E6E6F5E10C94FA3065EE7EEFC2
:102AD00090E080E00E944E3260E082E090E00E9450
:102AE000303281E08093460261E083E090E00E9412
:102AF000303260E074E184E090E00E944E3260E0A9
:102B000086E090E00E94303260E087E090E00E9432
:102B1000303240E050E0BA0188E090E00E9442325A
:102B200060E083E290E00E94303260E08CE090E070
:102B30000E94303260E08DE090E00E9430321982D5
:102B40001A821B821C821D821E821F82188648E008
:102B500050E067E170E0CE0101960E94203240E033
:102B600050E0BA018FE190E00E94423240E050E034
:102B7000BA018FE090E00E94423240E050E0BA019A
:102B800083E190E00E9442322896E2E00C941631F4
:102B900090918D0392FB222720F9281779F080FB72
:102BA00092F990938D0360918C0370918D0384E072
:102BB00090E00E944E3282E00E949E0F08951F9284
:102BC0000F920FB60F9211242F933F934F935F9361
:102BD0006F937F938F939F93AF93BF93EF93FF93E5
:102BE0008091E10082FF09C08091E20082FF05C070
:102BF0008091E1008B7F8093E1008091DA0080FF7B
:102C000024C08091D80080FF20C08091DA008E7FA0
:102C10008093DA008091D90080FF9DC080E189BD5A
:102C200082E189BD09B400FEFDCF81E08093A0035D
:102C300080919303811109C00E940D080E94AE0883
:102C40008091E20084608093E2008091E10080FF47
:102C500017C08091E20080FF13C08091E2008E7F58
:102C60008093E2008091E20080618093E200809195
:102C7000D80080628093D80019BC85E08093A003BF
:102C80008091E10084FF2BC08091E20084FF27C087
:102C900080E189BD82E189BD89B5982F917080FF5F
:102CA000FBCF8091D8008F7D8093D8008091E10088
:102CB0008F7E8093E1008091E2008F7E8093E2001E
:102CC0008091E20081608093E2008091A1038823DB
:102CD00009F447C084E08093A0038091A003809111
:102CE000E10083FF27C08091E20083FF23C0809131
:102CF000E100877F8093E10082E08093A00310923F
:102D0000A1038091E1008E7F8093E1008091E20039
:102D10008E7F8093E2008091E20080618093E200E8
:102D200042E060E080E00E947C088091F0008860D2
:102D30008093F000FF91EF91BF91AF919F918F91A0
:102D40007F916F915F914F913F912F910F900FBEA7
:102D50000F901F90189519BC1092A0031092930326
:102D600074CF8091E30087FD93E09093A003B5CFEB
:102D700078941F921FB61F9211248F939F93AF9345
:102D8000BF9380918F0390919003A0919103B09194
:102D900092030196A11DB11D80938F039093900320
:102DA000A0939103B0939203BF91AF919F918F91A4
:102DB0001F901FBE1F9018959C014FB7F8948091EB
:102DC0008F0390919003A0919103B09192034FBF14
:102DD000821B930B08952FB7F89480918F039091E5
:102DE0009003A0919103B09192032FBF08950E9488
:102DF000EB169C019091800380918103982B21F028
:102E000030937D0320937C03909182038091830310
:102E1000982B21F030937B0320937A03E091880371
:102E2000F0918903309749F082E080937E03068019
:102E3000F781E02D8EE793E0099508951092450201
:102E400080915A01882339F180918C0387FF23C038
:102E5000E4EEF1E08EE1DF011D928A95E9F790E062
:102E600080E00E94FA0990E080E00E94D50910926B
:102E70001C020E94D91086E0EEE7F3E0DF011D920C
:102E80008A95E9F7109277031092780310927903EC
:102E90000E94F7160895ECEDF1E086E0DCCFAAE29F
:102EA000B0E0E5E5F7E10C94F93082EA93E0209197
:102EB000F100FC012193CF01F3E08A3A9F07B9F7B3
:102EC0008091A303833009F470C0B8F4813009F411
:102ED00047C0823009F4B1C08091E80083FF7EC210
:102EE0008091A2039091A3039A3008F077C2E92F52
:102EF000F0E0EA59FD4C0C9482318A3009F48CC020
:102F00008B3009F46FC0893039F78091A203813288
:102F100019F78091A6039091A7030297E8F6809194
:102F2000E800877F8093E8008091E80082FF38C046
:102F30009091F3008091F200029731F48091F100BA
:102F4000813011F0863021F48091F1008093950357
:102F50008091E8008B778093E8000E945D08BCCFE9
:102F60008091A203813A09F0B7CF8091E800877F72
:102F70008093E8008091A6039091A703892B61F4C8
:102F800068E086E993E070E00E9409098091E8001A
:102F90008B778093E800A0CF60E090E080E0F3CFF3
:102FA0008091A0038111C0CF97CF8091A203813A75
:102FB00009F092CF8091A6039091A703892B09F085
:102FC0008BCF8091E800877F8093E8008091E800B4
:102FD00080FFFCCF80915A018093F1008091E8003E
:102FE0008E77B9CF8091A203813209F075CF80919D
:102FF000A6039091A703892B09F06ECF8091E8007A
:10300000877F8093E8000E945D088091A4038093ED
:103010005A010E941E1760CF8091A203813209F0ED
:103020005BCF8091E800877F8093E8000E945D0875
:103030008091A503809394034FCF8091A203813A9E
:1030400009F04ACF8091E800877F8093E800809163
:10305000E80080FFFCCF80919403BECF803899F0C8
:10306000823809F0BBC18091A6038F70873008F0C9
:10307000B5C18093E9008091EB0085FB882780F93A
:103080001092E90006C080919E0390919F039111D8
:1030900082609091E800977F9093E8008093F10020
:1030A0001092F1008091E8008E7794C1882309F492
:1030B00082C1823009F092C18091A403811185C13F
:1030C0008091A6038F702FEF280F263008F086C15D
:1030D0008093E9002091EB0020FF77C1933031F419
:1030E0008091EB0080628093EB006FC19091EB00C8
:1030F00090619093EB0021E030E001C0220F8A95AF
:10310000EAF72093EA001092EA008091EB008860D1
:10311000EACF811163C11091A4031F778091E3006E
:103120008078812B8093E3008091E800877F8093F3
:10313000E8000E945D088091E80080FFFCCF80914C
:10314000E30080688093E30082E0111183E08093C4
:10315000A00344C18058823008F040C18091A4038C
:103160009091A5038C3D23E09207A1F583E08A832B
:103170008AE289834FB7F894DE01139620E03EE09F
:1031800051E2E32FF0E050935700E49120FF03C099
:10319000E295EF703F5FEF708E2F90E0EA30C0F065
:1031A000C7968D939D932F5F243159F74FBF809120
:1031B000E800877F8093E8006AE270E0CE01019624
:1031C0000E9409098091E8008B778093E80006C18E
:1031D000C096E7CF4091A6035091A703292F33272C
:1031E0002330310509F444C078F52130310509F464
:1031F0006FC08BE390E0E6EEF9E02230310509F094
:10320000EDC02091E800277F2093E8002091A803DB
:103210003091A9038217930708F49C0140E021151F
:10322000310509F064C0411162C08091E80082FD5F
:10323000C9CF8091A003882329F2853019F28091AB
:10324000E80083FFF2CFBECF21323105A9F122324F
:10325000310509F0C3C04115510509F443C041309F
:10326000510509F0BBC086EB90E0ECEEF8E0C9CF69
:10327000992781309105C1F0009759F0029709F024
:10328000ADC0E3E3FAE0E4918E2F90E0E3E3FAE0EF
:1032900007C0E9E5FAE0E4918E2F90E0E9E5FAE075
:1032A000009709F49BC0ADCFE7E4FAE0E4918E2FDC
:1032B00090E0E7E4FAE0F4CF4115510571F04130B8
:1032C000510509F08BC089E090E0E1E1FAE099CF87
:1032D00082E190E0E1E2FAE094CF89E090E0E8EF6B
:1032E000F9E08FCF84E490E0E2EAF9E08ACF8091C0
:1032F000A003882309F466CF853009F463CF809159
:10330000E80083FD5FCF8091E80082FD8ECF809141
:10331000E80080FF84CF9091F3008091F2002115A6
:10332000310519F08830910550F041E0089709F017
:1033300040E08091E8008E778093E80070CF449160
:103340004093F1003196215031090196E8CF803841
:1033500009F044C08091E800877F8093E800809165
:10336000A1038093F1009ECE811138C01091A40377
:103370001230A0F58091E800877F8093E8001093D9
:10338000A1030E945D08112311F084E005C0809123
:10339000E30087FDFACF81E08093A00342E061EC77
:1033A00081E00E947C0842E261EC82E00E947C089D
:1033B0008091A00313C08091A403813079F481E04F
:1033C000933009F080E080939F031092E900809190
:1033D000E800877F8093E8000E945D088091E80004
:1033E00083FF0AC08091E800877F8093E800809186
:1033F000EB0080628093EB00AA96E3E00C94153119
:103400001F920F920FB60F9211242F933F934F9359
:103410005F936F937F938F939F93AF93BF93CF935C
:10342000DF93EF93FF93D091E900DF708091EC0080
:10343000C82FC17080FDC0E81092E9008091F000B3
:10344000877F8093F00078940E944F171092E900D4
:103450008091F00088608093F000CD2BCF70C093F6
:10346000E900FF91EF91DF91CF91BF91AF919F91D3
:103470008F917F916F915F914F913F912F910F901D
:103480000FBE0F901F9018950E941E172FEF84E318
:103490009CE0215080409040E1F700C0000088E1AE
:1034A0009AE00FB6F894A895809360000FBE9093B1
:1034B0006000FFCF662309F45DC08D3C41F40E949B
:1034C000520A8195809381030E94F71608958E3CDD
:1034D00019F40E94520AF6CF8F3C31F40E94520A2E
:1034E000819580938003F0CF803D19F40E94520AA9
:1034F000F8CF893D29F40E94300A80938203E4CFFB
:103500008A3D21F40E94300A8195F7CF8B3D31F43A
:103510000E94300A819580938303D6CF8C3D19F4A5
:103520000E94300AF8CF9FE2980F983070F4815DC6
:10353000990B21E030E001C0220F8A95EAF78091D3
:103540007F03822B80937F03BFCF8D3D31F4809129
:103550007903816080937903B7CF8E3D21F4809108
:1035600079038260F7CF8F3D09F0AECF8091790368
:103570008460F0CF409180038D3C59F480918103A9
:1035800087FF0DC01092810341110BC01092770389
:1035900008C08E3C81F48091810318169CF344236B
:1035A00081F08091820390918303892B09F08CCF65
:1035B0001092780389CF8F3C49F447FFF0CF1092E7
:1035C0008003809181038111ECCFE0CF803D19F41D
:1035D0001416ACF3E4CF90918203893D29F41916B7
:1035E000F4F610928203DBCF8A3D19F497FFD7CF10
:1035F000F8CF909183038B3D29F497FFD0CF1092A1
:103600008303CDCF8C3D19F41916CCF3C8CF9FE2BC
:10361000980F983090F4815D990B21E030E0B9016A
:1036200002C0660F771F8A95E2F7CB0180959091D3
:103630007F03892380937F03B2CF8D3D31F4809146
:1036400079038E7F80937903AACF8E3D21F48091F8
:1036500079038D7FF7CF8F3D09F0A1CF809179035A
:103660008B7FF0CF882381F19CEF980F913A28F45B
:103670000E9476090E94D910089590E2980F983020
:1036800050F4877091E001C0990F8A95EAF7892F6D
:103690000E94AF0EEFCF9BE5980F933028F490E097
:1036A00080E00E94FA09089598E5980F9B3128F46C
:1036B00090E080E00E94D509089593E3980F93313C
:1036C00018F460E00E945A1A0895CF93C82F8823F7
:1036D000B1F18CEF8C0F813AA0F580915A018823CB
:1036E00001F180918C0387FF1CC0EC2FE695E695D5
:1036F000E695F0E0EE51FE4F828190E04C2F47704E
:1037000021E030E002C0220F331F4A95E2F7822306
:103710009323892B79F08C2F0E9476090E94D9106F
:1037200009C0ECEDF1E08191C817A9F381E0E23E18
:10373000F807C9F78C2F0E94A1090E94D910CF91D8
:10374000089580E28C0F883068F4C77021E030E083
:1037500001C0220FCA95EAF780914502822B80931F
:103760004502EBCFEBE5EC0FE33040F4F0E0E55A37
:10377000FE4F808190E00E94FA09E1CFE8E5EC0F6E
:10378000EB3150F4F0E0EE0FFF1FE25AFE4F808164
:1037900091810E94D509D3CF83E38C0F833178F6D2
:1037A00061E08C2F0E945A1ACACF1F93CF93DF93E8
:1037B000182FD0E0C0E0893311F4C0E5D0E0812FAC
:1037C0000E94651B209739F4812F0E94321BDF91E4
:1037D000CF911F9108958FE99FE00197F1F700C005
:1037E00000002197EFCF0F931F93CF93DF93C62F46
:1037F000D42F022FFC0185818823A9F06093E60372
:103800000E94EB169093E5038093E403C77081E078
:1038100001C0880FCA95EAF70E943211DF91CF915B
:103820001F910F9108958091E603681332C0809133
:10383000E4039091E5030E94DC16883C910548F56D
:1038400010E21D0FCD17B9F080E28C0F883040F4E4
:10385000C77081E001C0880FCA95EAF70E942B115A
:10386000183048F481E09D2F977001C0880F9A9519
:10387000EAF70E943211802F0E94D51B183070F693
:10388000D77081E001C0880FDA95EAF70E942B110A
:10389000C5CFC77081E001C0880FCA95EAF7F6CF9F
:1038A00080E09091720320917103291709F446C0BA
:1038B000E92FF0E0ED58FC4F808187FB222720F9AB
:1038C0008F779F5F937090937203909170039F5FC7
:1038D000909370038823A9F0823031F5222311F1EF
:1038E0008BE40E94D51B89EA0E94651B8FE39CE94B
:1038F0000197F1F700C0000089EA0E94321B81E0C5
:10390000D0CF89EA2111EDCF8AEA0E94D51B8AEA3D
:103910000E94651B8FE39CE90197F1F700C000004E
:103920008AEAEBCF8EE4F1CF833029F489ED2111BF
:10393000D8CF8AEDEACF222351F3D5CF0895A6E060
:10394000B0E0E5EAFCE10C94EB3080916E03882353
:1039500009F4A1C080916C0390916D030E94DC1664
:10396000C29708F478C00E94EB1690936D03809381
:103970006C038AEE93E09093F1078093F0078091B7
:103980008403882309F494C086EB94E00E94CB1052
:10399000209123031C823AE0822F632F0E94213161
:1039A000905D9B830E9421319923F1F1905D9A8370
:1039B00080E2243628F0822F64E60E942131805D67
:1039C000898381EB94E00E94CB10FE013196DF01E8
:1039D0000D900020E9F7CD0101977C018F010E15B4
:1039E0001F0540F10E941F0A182F89EA94E00E94E7
:1039F000CB108FE994E011FF02C083EA94E00E94AB
:103A0000CB1087EA94E00E94CB10809124030E949F
:103A1000E70F823009F446C098F48823C1F0813062
:103A2000F1F181E794E015C090E3243608F0BFCFB0
:103A300090E2BDCFD8018D918D010E941D10CFCF96
:103A4000833099F1843069F78FE794E002C087E909
:103A500094E00E94CB108091E8039091E903892BB8
:103A600009F055C080916B038823A9F00E946A0970
:103A700000916703109168032091690330916A03F4
:103A8000601B710B820B930B6F3F7F4F8F4F9F47D4
:103A900010F40E940B122696E1E10C9407318FE896
:103AA00094E0D7CF87E894E0D4CF87E794E0D1CFF4
:103AB0002091E8033091E903AAEEB3E090E080E0C2
:103AC00041E050E0FC01E451FB4F14916D91161759
:103AD000A1F0BD0161507109FB011083BC01E6E05A
:103AE00076956795EA95E1F7FA0102C0EE0FFF1FA0
:103AF0006A95E2F7BF012E2B372B01968115F4E072
:103B00009F0701F73093E9032093E803A4CF809146
:103B10006E03882309F4A6CF809166038111A2CF9A
:103B20000E9426122091E8033091E9032115310506
:103B300009F498CF80E041E050E0082F10E07A01CE
:103B4000082E02C0EE0CFF1C0A94E2F7B7016223B4
:103B50007323672B11F48F5FF0CF9091650390FF73
:103B60009CC0880F880F880F8093510110925401D8
:103B7000895F8093520187E08093550124E630E00D
:103B800047E050E06FE471E088E70E94462E892B01
:103B900009F068CFA80126E0440F551F2A95E1F7E8
:103BA0008091650380FF8AC0E5E2F3E080E4DF01F5
:103BB0001D928A95E9F7E0EDF1E0FE83ED8308ECD4
:103BC00011E088EDA82E81E0B82E97E0392E44242C
:103BD0004394AD81BE818D91BE83AD83F801219167
:103BE0008F01240F352F311D26513C4FE82FF0E077
:103BF000EB5DFC4F90E080E0632C681A742C082E7B
:103C000001C0770C0A94EAF76901812CD6019D90D6
:103C10006D019720662D68196770562E062E000CD0
:103C2000770BB92D01C0BB0F5A94EAF771956195D6
:103C300071096770772701C096946A95EAF79B2A05
:103C40006081562E59285082839468E08612DECF18
:103C5000019631968830910579F68D819E81A8165E
:103C6000B90609F0B6CF04E610E020E430E045E202
:103C700053E060E488E70E94D02E892B09F0F2CE51
:103C8000E094F0948091E8039091E903E822F9220E
:103C9000F092E903E092E803E5CE8295880F880F61
:103CA0008074809351019801369527952093540193
:103CB000815C809352012093550160CF46515C4F47
:103CC00004E610E020E430E0D4CF80918403882320
:103CD00019F00E94EB1608950E94670CCB0108951D
:103CE00060911B036695669570E04BE050E084E4BC
:103CF00091E00E94E931892B19F481E08093FB0265
:103D00000E94651E9093F5028093F4028091FC025C
:103D100084608093FC02089590911B0390FF3AC049
:103D20009370811138C0946090931B038091FC02C2
:103D300081608093FC02662391F020911B033091F7
:103D40001C0340911D0350911E0360911F0370914D
:103D5000200380912103909122030E944E126091D2
:103D60001B036695669570E04BE050E084E491E0BB
:103D70000E94E931892BB9F00E94030B81E0809306
:103D8000F70220E040911E0360911D0380911C0307
:103D90000E9474120895893110F09066C5CF880F83
:103DA000880F982BC1CF0E94701EE8CF80911B0313
:103DB00086958695815009F488E161E00E948C1E09
:103DC000089580911B03869586958F5F893108F051
:103DD00081E061E00E948C1E089590911B0390FF8A
:103DE00009C096959695981728F0961718F40E9492
:103DF000E11E089561E00E948C1E0895B0E0A0E0ED
:103E0000E4E0FFE10C94F2308C01FC018481882312
:103E100009F455C021E0408151816281738195810F
:103E20000E94F80FEC01F8012581FC01E851FC47E4
:103E3000222309F44EC49A9581159F4418F5CE01AA
:103E40009927AC01445051094432510518F08B9721
:103E50000E9788F4A091AE02B0E0AA0FBB1FAD543C
:103E6000BD4F8D919C9111978F3F3FE7930719F0BC
:103E700001968D939C93E730F105E8F5E059FD4CF0
:103E80000C94823190E080E0CF3FD10509F0C8F674
:103E9000CE01D7CF26E241EE61EEC8010E94F31BAE
:103EA00080911A02877059F0F8018581882339F0D2
:103EB00080918D0382FF03C082E00E949E0FCDB7E8
:103EC000DEB7EAE00C940E3127E245EE65EEE5CF71
:103ED00026E241EE60EEE1CF27E245EE64EEDDCF73
:103EE00026E241EE62EED9CF27E245EE66EED5CF6F
:103EF00028E241E0EBCF1092E603CE019057839782
:103F000008F0F8C384E090E00E941A3290938D0389
:103F100080938C03FE01E150F047E232F10520F47A
:103F2000E958FD4C0C94823180918C038160809320
:103F30008C0395C080918D03886080938D038FC022
:103F400080918C038260F3CF80918C038460EFCFEB
:103F500080918C038860EBCF80918D038160EDCFE1
:103F600080918D038260E9CF80918C038061DFCFE7
:103F700080918C038062DBCF80918C038064D7CFEB
:103F80000E941E1780918C038068D1CF80918C0392
:103F90008C60CDCF80918D038360CFCF80918C03D7
:103FA0008E7FC5CF80918D03877FC7CF80918C0393
:103FB0008D7FBDCF80918C038B7FB9CF80918C0397
:103FC000877FB5CF80918D038E7FB7CF80918D0392
:103FD0008D7FB3CF80918C038F7EA9CF80918C038E
:103FE0008F7DA5CF80918C038F7BA1CF0E941E1760
:103FF00080918C038F779BCF80918C03837F97CFA9
:1040000080918D038C7F99CF80918C0382FB9927BF
:1040100090F921E0922790FB82F990FB83F987CFFA
:1040200080918D03982F909591708E7F892B90FBB6
:1040300081F983CF90918C03892F8F7B96FF8064C9
:1040400076CF0E941E1790918C03892F97FB87F9DA
:1040500080586DCF61E08EE090E00E943032609138
:104060008C0370918D0384E090E00E944E320E9498
:104070001E1716CF60E0EFCF90918C03892F8F7EB3
:1040800094FF806154CF90918C03892F8E7F90FF95
:1040900081604DCF90918D03892F877F93FF88603A
:1040A0004CCF85E337C385E322C321117EC08091C5
:1040B00045028272FE01E052F847E531F10508F051
:1040C00084C0E756FD4C0C94823180911B0380FF25
:1040D0001EC0282F2E7F20931B0330911C0340917C
:1040E0001D0350911E0360911F0370912003809166
:1040F0002103909122030E944E120E94030B809193
:10410000FC0281608093FC020E940A0BC9CE816090
:1041100080931B0361E0869586950E948C1EC0CE1D
:1041200046ED5EE161EE7EE10E94FC0AB9CE41EE11
:104130005EE166ED7EE1F8CF4BE353E165E473E1C8
:10414000F3CF45E453E16BE373E1EECF41E253E19A
:104150006EE273E1E9CF4EE253E161E273E1E4CF55
:1041600047E053E164E173E1DFCF44E153E167E00D
:1041700073E1DACF4FE453E169E673E1D5CF49E665
:1041800053E16FE473E1D0CF61E081E0C6CF65E039
:1041900082E00E94ED1E84CE68E086E0FACF6EE0F9
:1041A00089E0F7CF68E18FE0F4CFC3309CE7D9070F
:1041B00009F487C008F05BC0C115FCE7DF0709F40C
:1041C00064C0C130DC4709F482C0F8018581C08138
:1041D000D181882309F489C0CE010E94E70EF82E10
:1041E000682FCE010E94570FBE018F2D0E94720DC5
:1041F0000E94910DD82FC92FA82EF801C580B68036
:10420000B2943FE0B32280911A02877009F1EC2C3E
:10421000CC20F9F0892F807F803469F080E28D0F07
:104220008830B0F0892F807E803229F4F1E0FD17CC
:1042300078F4BB2069F080918D0382FF09C082E091
:104240000E949E0F80911A028770EE24E3948111E0
:10425000E12CDC2ED2942FE0D2222BE02D1508F495
:10426000A9C0ED2DF0E0E255FD4C0C948231CB3528
:104270003CE7D307C1F1CC358CE7D80751F1CA35FB
:10428000DC4709F0A2CF81E02BC00E941E17EFEFA0
:10429000F4E32CE0E150F0402040E1F700C00000E2
:1042A00087E797E7909301088093000888E19AE0F8
:1042B0000FB6F894A895809360000FBE90936000AD
:1042C000FFCF6FEF7FEF90E080E00E944E320E94C0
:1042D000441A80918D0382FB882780F991E0892719
:1042E0000E94C81572CF80E0FBCFCE010E94230F41
:1042F000F82E7ACF3C2F3F70F32EC07F19F0F29446
:1043000090EFF922CC20B9F0FF2069F080E28D0F08
:10431000883010F0A11009C080914502F82AF0926F
:1043200045020E94D9108D2F43C080911C02F82AAB
:10433000F0921C02F6CF8D2F0E94321BFF20D1F18C
:10434000D05ED83010F0A11004C08F2D0E94AF0EA7
:1043500006C0F09480911C02F822F0921C020E9488
:10436000D91028C08C2F8F70F82EC07FC03219F062
:10437000F29480EFF822AA2059F091E0A91609F4EE
:1043800078C0CC2009F484C0BB2009F446C0CBCF50
:1043900080918D0382FD3DC0CC20A9F1FF2039F032
:1043A00080914502F82AF09245020E94D91080E0DF
:1043B0000E94651BED2DE850FF0B349710F40E940E
:1043C0001F0AEE20A9F080911A0280FD11C0F801A9
:1043D00015828695869586950E94B50FC8010E9424
:1043E000FE1E80911A028695869586950E94910FF1
:1043F00020E0F8014081518162817381848195813F
:104400000E94F80F5CCD80E00E94321BFF2091F2E9
:104410009CCFCC20A1F0B11004C08F2D0E9432118E
:10442000C9CFE1E0BE12C6CF80911B029F2D982319
:10443000F91609F4BFCFF82AF0921B02BBCFB110D6
:10444000B9CF8F2D0E942B1190911B028F2D8923A4
:1044500029F08F2D8095892380931B028091030280
:104460009F2D982309F4A6CFF094F822F09203022E
:10447000A1CFCC2029F0F5E0FB1508F49BCFCDCFE0
:1044800024E02B1508F496CF8F2D0E942B1192CF8C
:10449000BB20D1F339E3A31209C08FEF97EEE3E01D
:1044A00081509040E040E1F700C000008D2F0E9455
:1044B000321B80CF8C2F86958695837069F0813072
:1044C00009F078CF8D2F9C2F9370C11002C080E02F
:1044D00090E00E94D5096ECF8D2F9C2F9370C11054
:1044E00002C080E090E00E94FA0964CF6C2D8D2F0D
:1044F0000E945A1A5FCF8C2F837089F5C1105ACF52
:104500004D2F429546954770440F440F8D2F8F7065
:10451000042E01C0880F0A94EAF72D2F2071D4FFD2
:1045200007C02FE030E001C0220F4A95EAF720953E
:10453000C695C695C370C23069F050F430914602FA
:10454000C13029F0822B83230E94C10F33CF832BEC
:10455000822BFACF282B809146028227F5CF8695B1
:10456000CC2011F08C2F8170882309F423CF4D2F9C
:10457000429546954770440F440F8D2F8F70042E3F
:1045800001C0880F0A94EAF72D2F2071D4FF07C0CD
:104590002FE030E001C0220F4A95EAF72095C6953A
:1045A000C695C370C23069F050F430912403C13015
:1045B00029F0822B83230E948E0FFCCE832B822B2B
:1045C000FACF282B809124038227F5CFCF70CC20FF
:1045D00029F08C2F0E94B50F8D2F20CF8D2F0E9498
:1045E0002B118C2F0E94910FE5CE8D2FF2EFAF167D
:1045F000A9F1FA1570F020EFA216D1F031EFA31651
:1046000091F0CC2009F455C0B1108DCE8C2F8F7154
:1046100029C093EFA91649F1E4EFAE12F2CF9091C1
:104620008D0392FD2DC08C2F8F71CC20D9F21AC032
:10463000CC2079F0F4E0FB1508F4BCCECF7181E01A
:1046400090E001C0880FCA95EAF79091240389276A
:10465000B2CF25E02B1508F4ADCEF0CF8C2F8F71A3
:10466000C110C0CF0E94B50FA5CE80E0CC2009F4C8
:10467000A2CFCF7181E001C0880FCA95EAF79BCF26
:10468000CC2061F08C2F8F7192FFECCF98E0899F46
:1046900090011124236020931A02E4CF81E00E944C
:1046A0009E0FE1E0EB1508F085CE82E00E949E0FA0
:1046B00081CEBB2059F0893309F0F8CEFFEF27EE09
:1046C00033E0F15020403040E1F7EECE8C2F8F7177
:1046D00089CFE730F10508F4D1CBC6318CE7D80794
:1046E00009F0E5CC809102028111DDCC89E20E94C3
:1046F000760912C0C631FCE7DF0709F0D6CC8091FD
:1047000045028A7A91E009F490E0909302028111C7
:10471000C8CC89E20E94A1090E94D910C1CBCF93D5
:10472000DF9380911902807F09F04DC080911802BB
:10473000882309F448C0E091E3035091AA03C09193
:104740001402D0911302609115027091160247E095
:104750005E17C9F18E2F90E0E49FF0011124E5551A
:10476000FC4F2481222391F1489FF001499FF00DD5
:104770001124DF01A555BC4F11962C9111972C13D4
:1047800025C02C912D1322C015962C91159721111F
:104790001DC012962D913C91261B370B283C3105EC
:1047A000A8F4809119028F70806180931902EF54F0
:1047B000FC4F80818F708061808383E192E00E9452
:1047C000FE1E0E94DD0EDF91CF910895FC0131960F
:1047D000E770BECFA4E1B0E0E0EFF3E20C94F0307C
:1047E0008C0186E0F801DE011F9601900D928A95FA
:1047F000E1F7F8018481E58093E1A92E92E0B92EDA
:1048000090911702911128C0882319F1EE20F1F040
:10481000C8010E94C40FF82E8823C1F087E0F80178
:10482000D50101900D928A95E1F7809117028130B0
:1048300031F480911302909114020E94160F0E948D
:104840008F238F2D6496ECE00C940C31C8010E94EC
:10485000FE1EFF24F394F5CFD080C1808280938028
:10486000F09018022091150230911602A401421B0B
:10487000530BFF2009F4D9C0483C510508F092C001
:104880008823F9F29091140280911902282F207F39
:1048900009F056C0C91214C090911302D91210C069
:1048A000E11048C08F7080618093190283E192E02B
:1048B0000E94FE1E80911902F8018683F12CC1CF5F
:1048C000E11038C06C2D8D2D0E94EE076C2D8D2DC2
:1048D0000E94EE07E82E8111F1CFDF86C88A8F850E
:1048E00098890E94160F292F22952F70243058F492
:1048F0009F70223088F0992399F0F8019681907F7B
:1049000079F4FE2C9ECF2A5F2F70223068F0C80108
:104910000E94FE1EEF2CF5CF992311F0882389F316
:10492000805E883070F3F3CF803F58F3815F83302F
:1049300070F7E7CF80911902816080931902BECF92
:10494000C91207C090911302D91203C0EE2009F4D6
:104950008DC0C8010E94C40F882309F477CFEE20D0
:1049600009F474CF80911902803288F020911302EB
:1049700030911402398728879B868A869091170286
:104980009C871D868E87CE0108960E94FE1E87E0BA
:10499000F801A3E1B2E001900D928A95E1F70E943F
:1049A0008F2357CF90911902292F207F51F483E153
:1049B00092E00E94FE1E87E0F50111928A95E9F7C8
:1049C0007DCF882309F43DCF809114028C1110C053
:1049D00080911302D8120CC0E1100AC09683C8015E
:1049E0000E94FE1E87E0F50111928A95E9F729CF12
:1049F000C8010E94C40F882309F428CFEE2009F4CF
:104A000025CF80911902803210F22091130230914B
:104A100014023A8329839C828B82909117029D8392
:104A20001E828F83CE010196B0CF483C5105D0F64F
:104A3000882309F40ECFFE2CEE2009F407CF8091D5
:104A400014028C1120C080911302D8121CC08091D6
:104A5000190280FD0FC0982F907F61F08683903FF0
:104A600031F0982F907F905F8F70892B8683C801DB
:104A70000E94FE1E87E0F801A3E1B2E001900D92D2
:104A80008A95E1F7DECEC8010E94C40F81117FCF65
:104A900080911902816080931902C8010E94FE1E54
:104AA000D0CEABE1B0E0E7E5F5E20C94F8304E8B08
:104AB0005F8B688F798F8A8F9B8F192F911110923E
:104AC0001C021D8A86E0FE017696DE011F9601908B
:104AD0000D928A95E1F70A8D002341F021E04F8580
:104AE000588969897A89C8010E94F80F0B8B1C8B41
:104AF00087E0FE013F96DE01189601900D928A959F
:104B0000E1F7CE0108960E94EA2381112AC087E0CE
:104B1000FE013896DE01119601900D928A95E1F71B
:104B20008C858823F1F02091AA0330E0C901019619
:104B3000877099274091E30348171906E9F097E039
:104B4000929FD001939FB00D1124A555BC4FFE013B
:104B5000319601900D929A95E1F78093AA030E94F5
:104B6000DD0E17E08091E3039091AA03891312C030
:104B70006B96E4E00C9414310E941E171092AA0365
:104B80001092E30387E0E3E1F2E0DF011D928A95F2
:104B9000E9F7E7CF819FC001112485559C4F0E9402
:104BA000EA23882329F38091E30390E0019687703C
:104BB00099278093E303D6CFA3E1B0E0E2EEF5E2DC
:104BC0000C94EF308E01045F1F4F88E0D8011D92D6
:104BD0008A95E9F786E9C82E81E0D82EF12CE12CE0
:104BE000AA24A394B12C2FE9822E21E0922EF60163
:104BF00081916F018F3F09F442C0F894E82FE2954C
:104C0000EF70F0E021A18F70A50102C0440F551F85
:104C10008A95E2F7CA01922F982B91A392A18095D1
:104C2000892382A3789400C0EAE9F1E0712C31E095
:104C300021912F3F09F4A3C0A22FA295AF70B0E03D
:104C400090968C9190E02F7002C0959587952A954B
:104C5000E2F780FD94C0832F782A330F8E169F06CB
:104C600039F7F601319780818F3F11F00E94500C87
:104C700050EA5A95F1F7F801EE0DFF1D70828FEFA3
:104C8000E81AF80AA4E0EA16F10409F0B0CF48E007
:104C900050E0B8018AE892E00E94F631009741F0B6
:104CA00028E0F801AAE8B2E001900D922A95E1F718
:104CB0000091930210E009561D4F892B09F461C041
:104CC00081E080934B020E94EB1690934A028093FE
:104CD0004902F12CE0908403EE2009F4ACC0198263
:104CE0001A821B821C82809185028A3008F06DC076
:104CF0004CE255E1BE016F5F7F4FC8010E94CB11AE
:104D0000882309F487C04FED54E1BE016F5F7F4FE8
:104D1000C8010E94CB11882309F47CC044EE53E102
:104D2000BE016F5F7F4FC8010E94CB11882309F439
:104D300071C043E853E1BE016F5F7F4FC8010E941D
:104D4000CB11882309F466C01092850280919202EB
:104D500090E044E050E0BE016F5F7F4F89569D4F69
:104D60000E94F63121E020935202892B09F044C0C1
:104D7000E12C8E2D8F296396EDE00C940B3180E0B1
:104D80006BCFF0904B02FF2009F4A3CF8091490232
:104D900090914A020E94DC16059708F49ACF44E0ED
:104DA00050E06AE872E0C8010E94F631892B59F0A0
:104DB00084E0EAE8F2E0D80101900D928A95E1F7EB
:104DC00010924B0287CFF12CFBCF80914C02909137
:104DD0004D020E94DC16843F914008F089CF8091FB
:104DE0005202882329F284E0FE013196DF011D92F0
:104DF0008A95E9F710925202E0919202F0E0E956AA
:104E0000FD4F89819A81AB81BC8180839183A2838C
:104E1000B383AFCF809185028F3F31F08F5F809356
:104E200085028A3008F492CF0E94EB1690934D02CF
:104E300080934C02D4CF84E0F801A5E6B2E0019063
:104E40000D928A95E1F764E070E085E692E00E94B9
:104E5000800A8093640288E0EFE6F3E0AAE6B2E01D
:104E600001900D928A95E1F768E070E08AE692E0A1
:104E70000E94800A8093690280907202909073026F
:104E8000A0907402B090750280914E0290914F02F2
:104E9000A0915002B091510288169906AA06BB064D
:104EA000B1F080924E0290924F02A0925002B092C6
:104EB00051020E946A09861A970AA80AB90A8092C2
:104EC000860290928702A0928802B09289028BE0BB
:104ED000E6E7F2E0DE01119601900D928A95E1F786
:104EE0009981892F86958695DA80CB80BC800A854A
:104EF0001B8510928002112309F43BCF10FF0AC0DA
:104F000090FF1CC090911B03916090931B0360E085
:104F10000E948C1E11FF06C020E04B2D6C2D8D2DA4
:104F20000E94741212FF04C0002359F00E94701EE8
:104F300013FF1FCF81E08093F7021BCF0E94300B3D
:104F4000E9CF0E94030BF4CFA6E0B0E0EAEAF7E273
:104F50000C94F8300E94EB168C01809147029091DE
:104F600048028017910781F019821A820E94EB167D
:104F7000682F49815A81792F80E090E00E94512565
:104F800010934802009347022696E4E00C941431F3
:104F90001F921FB61F9211248F939F93AF93BF93BD
:104FA00080918E03811113C080918F0390919003A3
:104FB000A0919103B09192034196A11DB11D8093E0
:104FC0008F0390939003A0939103B0939203BF91AA
:104FD000AF919F918F911F901FBE1F901895CDB7D5
:104FE000DEB72C970FB6F894DEBF0FBECDBF85B7E6
:104FF000806885BF85B7806885BF84B7877F84BF99
:105000000FB6F894A8958091600088618093600045
:10501000109260000FBE80E890E00FB6F894809385
:105020006100909361000FBE8AE49CE09093D901E7
:105030008093D8010E940D080E94AE088091E20082
:1050400084608093E20078948091A0038823A1F08B
:105050001091E9001F709091EC00892F817090FDF4
:1050600080E8182B1092E9008091E80083FD0E94EF
:105070004F171F701093E90082E084BD93E095BD47
:105080009AEF97BD80936E0010928602109287026D
:1050900010928802109289028091D80080618093DA
:1050A000D8002AE12A95F1F700C08091D900182F85
:1050B000117080FD04C00E940D081092A00310938F
:1050C000840390E080E00E941A32853E9E4F11F0EA
:1050D0000E9460158EE090E00E940C3291E08111F8
:1050E00001C090E0909385039093380180918403F0
:1050F00081110E94742FEFE6F3E088E0DF011D923A
:105100008A95E9F7809138018111D0C182E08093BE
:10511000EC028091380182E08093F10280913801A5
:105120008091380181110CC082E38093560186E39F
:105130008093580184E38093570185E3809359015C
:1051400060E080E00E94B40A61E080E00E94B40A5E
:1051500060E081E00E94B40A61E081E00E94B40A4C
:10516000EFE8F1E03197F1F700C0000010E0809126
:10517000F102181708F49CC1809138018091380120
:1051800094E0811190E09093930284E0891B8093D6
:10519000920284E90E94500C86E60E94500C87E936
:1051A0000E94500C86EC0E94500C0AE911E0EFE9D5
:1051B000EE2EE1E0FE2ED8018D918D018F3F11F092
:1051C0000E94500CE016F106B1F788E0E7E9F2E042
:1051D000DF01282F1D922A95E9F7EAE8F2E0DF01C6
:1051E0001D928A95E9F790E080E00E941A32853E90
:1051F0009E4F11F00E94601582E090E00E940C32F8
:1052000080939F0284E090E00E941A3290938D0375
:1052100080938C0383E090E00E940C320E94C10FC7
:1052200080918403882309F455C1809185038111FD
:1052300053C181E08093650380FD50C180E8809375
:10524000E7030E94122E6BE070E083E592E00E947B
:10525000FE118823E9F18091650365E070E081FD2E
:105260003FC18EE492E00E94FE11882389F16DE037
:1052700070E08CE392E00E94FE11882349F10E94C5
:105280006A09605D7A488F4F9F4F60936703709300
:1052900068038093690390936A03EAEEF3E080E089
:1052A00094E0DF019C011D9221503040E1F7F09322
:1052B000F107E093F0078FEF9FEF9093E90380935E
:1052C000E80381E080936E0380936B031092660382
:1052D00080919402811185C088E090E00E94143290
:1052E0004B015C0183E290E00E940C32282F30E0F9
:1052F00040E050E060E070E080E090E000E20E947A
:105300009B31282939294A295B2920931B03309393
:105310001C0340931D0350931E0360931F0370935F
:10532000200380932103909322033091FC02336089
:105330003093FC022C7F09F042C025E020931B0330
:1053400010921C032FEF20931D0320931E03109235
:105350001F0325E030E04FEF5FEF60E00E944E1248
:1053600088E090E00E9414326B017C0183E290E0BF
:105370000E940C32282F30E040E050E060E070E006
:1053800080E090E00E949B31B22FA32FF42FE52FF5
:105390005B0197018601BC29A12BFE29E32BB09369
:1053A0001B03A0931C03F0931D03E0931E03609363
:1053B0001F03B092200380932103909322030E9445
:1053C0003F0B0E94030B0E94960A80911B0380FFF3
:1053D00005C060E0869586950E948C1E81E08093D2
:1053E000940280918403811102C00E94772F89E387
:1053F00091E09093890380938803FF24F394EE2433
:10540000E3948091A00310E400E172E1D72E85308F
:1054100009F4AEC00E94DC2500EA12E067E9C62E5E
:1054200062E0D62ED601F80191918D9122E0E83A02
:10543000F20709F4B9C09817B9F320908403B12C8E
:10544000D601AD906D01F80131908F013A1429F128
:10545000912C882483943A24832D8821B1F0222032
:10546000A1F09F82B8860E94EB169A878987EB8607
:1054700091E08A2D882109F490E09C874F8158851E
:1054800069857A858B850E9451259394880CF5E077
:105490009F12E2CFF8013197A082B39428E0B212B4
:1054A000CFCF0E94670C9924939483C080E02FCEC5
:1054B00060E0812F0E94980A082F61E0812F0E94EE
:1054C000980AE12FF0E0E351FD4F880F802B808395
:1054D0001F5F4DCE80E0AECE83E0ACCE80E4AFCE99
:1054E00089E492E0C0CE8091A003843009F434C0F6
:1054F0000E94030B80919602811109C0F0929602DE
:1055000080911B038170809395020E94300B0E9452
:105510000B1210928E0388E190E00FB6F894A895D4
:10552000809360000FBE1093600083B7817F84601A
:1055300083BF83B7816083BF7894889583B78E7F5C
:1055400083BF0FB6F894A89580916000886180931E
:105550006000109260000FBE0E94DC25E7E9F2E0D7
:1055600081918111E3C2AFE9B2E0AE17BF07C1F785
:105570008091A003853009F4B6CF0E941E170E94C7
:105580001F0A1092960280919502882351F0809113
:105590001B03816080931B0360E0869586950E94C3
:1055A0008C1E0E94701E36CF981347CF0E94A427EE
:1055B000912C80918403882309F4C7C0A090B30282
:1055C000B090B4020B2C000CCC08DD088091430194
:1055D00090E0E3EBF2E021E030E0329682179307AF
:1055E0000CF033C18091AF029091B002A091B10252
:1055F000B091B2026FB7F89440908F03509090032F
:1056000060909103709092036FBF481A590A6A0A1A
:105610007B0A1091430139EC431651046104710473
:1056200014F18091AE0290E0019669E170E00E9471
:105630002D318093AE02880F991FFC01ED54FD4F70
:1056400011821082812F183108F087E18F5F8093DB
:1056500043010E946A096093AF027093B002809385
:10566000B1029093B20242E0A416B104C104D10485
:105670000CF4F8C0A0E6BAEEA60195010E948831AC
:105680005B016C0188EC189F90011124032E000C23
:10569000440B550B240D351D461D571DA5E0B0E0EC
:1056A0000E9488319B01AC01C601B5010E944131C5
:1056B00029013A0191EF49165104610471042CF05B
:1056C00040EF442E512C612C712C8091AA029091B4
:1056D000AB02A091AC02B091AD022FB7F894A090AC
:1056E0008F03B0909003C0909103D09092032FBF8E
:1056F000A81AB90ACA0ADB0AA5E6AA16B104C104A7
:10570000D10484F00E946A096093AA027093AB02EC
:105710008093AC029093AD02809123038093A90201
:105720004092A8021091A902A091A802A11BBB0B54
:10573000A60195010E94933124E630E040E050E05C
:105740000E946331120F109323038091FB02882380
:1057500009F464C08091FA02E0911B03E695E69596
:10576000E81BE093F602823009F080C0F0E0EC59CB
:10577000FD4FE4910E2F10E03CE0C32E3CE0D32E11
:105780008091F702882361F01092F7020E94651E53
:105790009093F5028093F4021092F9021092F802AD
:1057A0000E94651EE091F402F091F5029C012E1B0F
:1057B0003F0B2F3F3F4790F52091E7022223B1F0A6
:1057C0001092E7022091E5023091E602821B930BD2
:1057D0008F3F9F4758F4205D3A483093E60220936C
:1057E000E5028091FC0288608093FC02A090F802A0
:1057F000B090F9020E0F1F1F1093F5020093F402F0
:1058000084EF92E0F60109958091F8029091F902F7
:10581000892B21F4AB2811F0F092E702B0908403B9
:10582000BB2019F00E94501CB82E8091F2028823F0
:1058300051F01092F2028091710380937203809173
:105840006F0380937003C12C6FC040815181052E7E
:10585000000C660B770BA40EB51EC61ED71E2F5F5D
:105860003F4FBBCE412C512C32012FCF863059F403
:10587000F0E0EF59FD4FE4910E2F10E02CEFC22E17
:105880002BE0D22E7DCF893061F4E695F0E0E25A2C
:10589000FD4FE4910E2F10E090E2C92E9CE0D92E2E
:1058A0006FCF00ED17E082E0C82E8BE0D82E68CFD6
:1058B00061E08C2D0E94980A182F60E08C2D0E94C8
:1058C000980AE12FEE0F8E2B0C2D10E0D801A3517A
:1058D000BD4FEC919E2F9370891729F1EE0FEE0FBB
:1058E000E82BEC938091EC028C0DEF70F0E0E15628
:1058F000FE4F08511D4FD080D8019C91D90EDC92EB
:10590000B3E060E0BD1524F0EDEFDE161CF461E0BD
:105910000E94D70A8D2DDD0C990B64E070E00E9487
:105920002D31D8018C93C3948091F102C81608F4EC
:10593000BFCF80918403882319F00E94501CB82A9D
:10594000BB2039F00E94670C0E949F1C0E94261207
:1059500004C00E949F1C9110F9CF86E0EEE7F3E0AF
:10596000DE01119601900D928A95E1F7B0907F03C8
:105970000091800310918103C0908203D090830333
:10598000109280031092810310928203109283037D
:10599000812F802B09F445C080917C0390917D0379
:1059A0000E94DC169C0190917703992309F4E3C0CF
:1059B00025313105B0F19F3F19F09F5F9093770338
:1059C000002359F00E94520A9FEF10160CF491E048
:1059D000899F802D112480938003112359F00E9408
:1059E000520A91E011160CF09FEF899F802D11242F
:1059F0008093810380918003882399F0A090810394
:105A0000AA2079F00E94720A882309F483C0809347
:105A100080038A2D0E94720A882309F47EC0809335
:105A200081038C2D8D2909F444C080917A039091D3
:105A30007B030E94DC169C0190917803992309F462
:105A400095C021353105A8F19F3F19F09F5F9093D4
:105A50007803CC2059F00E94300A9FEF1C140CF4FC
:105A600091E0899F802D112480938203DD2059F0DD
:105A70000E94300A91E01D140CF09FEF899F802D49
:105A800011248093830380918203882391F0C09036
:105A90008303CC2071F00E94720A882309F440C06D
:105AA000809382038C2D0E94720A8823E1F18093F7
:105AB000830380917F03B81216C0809180038823EE
:105AC00011F0081310C020918103222311F012134A
:105AD0000AC090918303992311F09D1104C0309165
